{
  "_format": "hh-sol-artifact-1",
  "contractName": "Funding",
  "sourceName": "contracts/Funding.sol",
  "abi": [
    {
      "inputs": [],
      "stateMutability": "nonpayable",
      "type": "constructor"
    },
    {
      "inputs": [
        {
          "internalType": "uint256",
          "name": "",
          "type": "uint256"
        }
      ],
      "name": "builder",
      "outputs": [
        {
          "internalType": "address",
          "name": "",
          "type": "address"
        }
      ],
      "stateMutability": "view",
      "type": "function"
    },
    {
      "inputs": [
        {
          "internalType": "contract IERC20",
          "name": "token",
          "type": "address"
        },
        {
          "internalType": "uint256",
          "name": "goal",
          "type": "uint256"
        },
        {
          "internalType": "string",
          "name": "metadata",
          "type": "string"
        }
      ],
      "name": "createFunding",
      "outputs": [],
      "stateMutability": "nonpayable",
      "type": "function"
    },
    {
      "inputs": [
        {
          "internalType": "uint256",
          "name": "projectId",
          "type": "uint256"
        },
        {
          "internalType": "uint256",
          "name": "amount",
          "type": "uint256"
        }
      ],
      "name": "fund",
      "outputs": [],
      "stateMutability": "nonpayable",
      "type": "function"
    },
    {
      "inputs": [
        {
          "internalType": "uint256",
          "name": "",
          "type": "uint256"
        }
      ],
      "name": "project",
      "outputs": [
        {
          "internalType": "string",
          "name": "metadata",
          "type": "string"
        },
        {
          "internalType": "bool",
          "name": "ongoing",
          "type": "bool"
        },
        {
          "internalType": "contract IERC20",
          "name": "token",
          "type": "address"
        },
        {
          "internalType": "uint256",
          "name": "goal",
          "type": "uint256"
        },
        {
          "internalType": "uint256",
          "name": "fund",
          "type": "uint256"
        }
      ],
      "stateMutability": "view",
      "type": "function"
    },
    {
      "inputs": [
        {
          "internalType": "uint256",
          "name": "projectId",
          "type": "uint256"
        }
      ],
      "name": "withdrawDonation",
      "outputs": [],
      "stateMutability": "nonpayable",
      "type": "function"
    },
    {
      "inputs": [
        {
          "internalType": "uint256",
          "name": "projectId",
          "type": "uint256"
        }
      ],
      "name": "withdrawFunds",
      "outputs": [],
      "stateMutability": "nonpayable",
      "type": "function"
    }
  ],
  "bytecode": "0x608060405234801561001057600080fd5b5033600160006101000a81548173ffffffffffffffffffffffffffffffffffffffff021916908373ffffffffffffffffffffffffffffffffffffffff16021790555061158f806100616000396000f3fe608060405234801561001057600080fd5b50600436106100625760003560e01c806311d5aaa714610067578063155dd5ee1461009b578063355d8767146100b757806396afccb3146100e757806397539f0414610103578063a65e2cfd1461011f575b600080fd5b610081600480360381019061007c9190610d96565b61013b565b604051610092959493929190611032565b60405180910390f35b6100b560048036038101906100b09190610d96565b610226565b005b6100d160048036038101906100cc9190610d96565b6104b3565b6040516100de9190610f8e565b60405180910390f35b61010160048036038101906100fc9190610d96565b6104e6565b005b61011d60048036038101906101189190610d2f565b6107a2565b005b61013960048036038101906101349190610de8565b6108fa565b005b600260205280600052604060002060009150905080600001805461015e906112f4565b80601f016020809104026020016040519081016040528092919081815260200182805461018a906112f4565b80156101d75780601f106101ac576101008083540402835291602001916101d7565b820191906000526020600020905b8154815290600101906020018083116101ba57829003601f168201915b5050505050908060010160009054906101000a900460ff16908060010160019054906101000a900473ffffffffffffffffffffffffffffffffffffffff16908060020154908060030154905085565b6003600082815260200190815260200160002060009054906101000a900473ffffffffffffffffffffffffffffffffffffffff1673ffffffffffffffffffffffffffffffffffffffff163373ffffffffffffffffffffffffffffffffffffffff16146102c7576040517f08c379a00000000000000000000000000000000000000000000000000000000081526004016102be906110ac565b60405180910390fd5b600260008281526020019081526020016000206002015460026000838152602001908152602001600020600301541015610336576040517f08c379a000000000000000000000000000000000000000000000000000000000815260040161032d906110cc565b60405180910390fd5b6002600082815260200190815260200160002060010160019054906101000a900473ffffffffffffffffffffffffffffffffffffffff1673ffffffffffffffffffffffffffffffffffffffff1663a9059cbb6003600084815260200190815260200160002060009054906101000a900473ffffffffffffffffffffffffffffffffffffffff1660026000858152602001908152602001600020600301546040518363ffffffff1660e01b81526004016103f0929190611009565b602060405180830381600087803b15801561040a57600080fd5b505af115801561041e573d6000803e3d6000fd5b505050506040513d601f19601f820116820180604052508101906104429190610d06565b610481576040517f08c379a00000000000000000000000000000000000000000000000000000000081526004016104789061108c565b60405180910390fd5b60006002600083815260200190815260200160002060010160006101000a81548160ff02191690831515021790555050565b60036020528060005260406000206000915054906101000a900473ffffffffffffffffffffffffffffffffffffffff1681565b60006004600083815260200190815260200160002060003373ffffffffffffffffffffffffffffffffffffffff1673ffffffffffffffffffffffffffffffffffffffff16815260200190815260200160002054141561057a576040517f08c379a00000000000000000000000000000000000000000000000000000000081526004016105719061114c565b60405180910390fd5b6002600082815260200190815260200160002060030154600260008381526020019081526020016000206002015410156105e9576040517f08c379a00000000000000000000000000000000000000000000000000000000081526004016105e0906110ec565b60405180910390fd5b6002600082815260200190815260200160002060010160009054906101000a900460ff161561064d576040517f08c379a0000000000000000000000000000000000000000000000000000000008152600401610644906110cc565b60405180910390fd5b6002600082815260200190815260200160002060010160019054906101000a900473ffffffffffffffffffffffffffffffffffffffff1673ffffffffffffffffffffffffffffffffffffffff1663a9059cbb336004600085815260200190815260200160002060003373ffffffffffffffffffffffffffffffffffffffff1673ffffffffffffffffffffffffffffffffffffffff168152602001908152602001600020546040518363ffffffff1660e01b815260040161070e929190611009565b602060405180830381600087803b15801561072857600080fd5b505af115801561073c573d6000803e3d6000fd5b505050506040513d601f19601f820116820180604052508101906107609190610d06565b61079f576040517f08c379a00000000000000000000000000000000000000000000000000000000081526004016107969061108c565b60405180910390fd5b50565b6040518060a001604052808281526020016001151581526020018473ffffffffffffffffffffffffffffffffffffffff1681526020018381526020016000815250600260006107f16000610b99565b8152602001908152602001600020600082015181600001908051906020019061081b929190610ba7565b5060208201518160010160006101000a81548160ff02191690831515021790555060408201518160010160016101000a81548173ffffffffffffffffffffffffffffffffffffffff021916908373ffffffffffffffffffffffffffffffffffffffff160217905550606082015181600201556080820151816003015590505033600360006108a96000610b99565b815260200190815260200160002060006101000a81548173ffffffffffffffffffffffffffffffffffffffff021916908373ffffffffffffffffffffffffffffffffffffffff160217905550505050565b806002600084815260200190815260200160002060010160019054906101000a900473ffffffffffffffffffffffffffffffffffffffff1673ffffffffffffffffffffffffffffffffffffffff1663dd62ed3e33306040518363ffffffff1660e01b815260040161096c929190610fa9565b60206040518083038186803b15801561098457600080fd5b505afa158015610998573d6000803e3d6000fd5b505050506040513d601f19601f820116820180604052508101906109bc9190610dbf565b10156109fd576040517f08c379a00000000000000000000000000000000000000000000000000000000081526004016109f49061112c565b60405180910390fd5b6002600083815260200190815260200160002060010160019054906101000a900473ffffffffffffffffffffffffffffffffffffffff1673ffffffffffffffffffffffffffffffffffffffff166323b872dd3330846040518463ffffffff1660e01b8152600401610a7093929190610fd2565b602060405180830381600087803b158015610a8a57600080fd5b505af1158015610a9e573d6000803e3d6000fd5b505050506040513d601f19601f82011682018060405250810190610ac29190610d06565b610b01576040517f08c379a0000000000000000000000000000000000000000000000000000000008152600401610af89061110c565b60405180910390fd5b806004600084815260200190815260200160002060003373ffffffffffffffffffffffffffffffffffffffff1673ffffffffffffffffffffffffffffffffffffffff1681526020019081526020016000206000828254610b6191906111de565b9250508190555080600260008481526020019081526020016000206003016000828254610b8e91906111de565b925050819055505050565b600081600001549050919050565b828054610bb3906112f4565b90600052602060002090601f016020900481019282610bd55760008555610c1c565b82601f10610bee57805160ff1916838001178555610c1c565b82800160010185558215610c1c579182015b82811115610c1b578251825591602001919060010190610c00565b5b509050610c299190610c2d565b5090565b5b80821115610c46576000816000905550600101610c2e565b5090565b6000610c5d610c5884611191565b61116c565b905082815260208101848484011115610c7557600080fd5b610c808482856112b2565b509392505050565b600081519050610c9781611514565b92915050565b600081359050610cac8161152b565b92915050565b600082601f830112610cc357600080fd5b8135610cd3848260208601610c4a565b91505092915050565b600081359050610ceb81611542565b92915050565b600081519050610d0081611542565b92915050565b600060208284031215610d1857600080fd5b6000610d2684828501610c88565b91505092915050565b600080600060608486031215610d4457600080fd5b6000610d5286828701610c9d565b9350506020610d6386828701610cdc565b925050604084013567ffffffffffffffff811115610d8057600080fd5b610d8c86828701610cb2565b9150509250925092565b600060208284031215610da857600080fd5b6000610db684828501610cdc565b91505092915050565b600060208284031215610dd157600080fd5b6000610ddf84828501610cf1565b91505092915050565b60008060408385031215610dfb57600080fd5b6000610e0985828601610cdc565b9250506020610e1a85828601610cdc565b9150509250929050565b610e2d81611234565b82525050565b610e3c81611246565b82525050565b610e4b8161128e565b82525050565b6000610e5c826111c2565b610e6681856111cd565b9350610e768185602086016112c1565b610e7f816113e4565b840191505092915050565b6000610e97600f836111cd565b9150610ea2826113f5565b602082019050919050565b6000610eba6015836111cd565b9150610ec58261141e565b602082019050919050565b6000610edd6014836111cd565b9150610ee882611447565b602082019050919050565b6000610f006010836111cd565b9150610f0b82611470565b602082019050919050565b6000610f236015836111cd565b9150610f2e82611499565b602082019050919050565b6000610f46601a836111cd565b9150610f51826114c2565b602082019050919050565b6000610f696018836111cd565b9150610f74826114eb565b602082019050919050565b610f8881611284565b82525050565b6000602082019050610fa36000830184610e24565b92915050565b6000604082019050610fbe6000830185610e24565b610fcb6020830184610e24565b9392505050565b6000606082019050610fe76000830186610e24565b610ff46020830185610e24565b6110016040830184610f7f565b949350505050565b600060408201905061101e6000830185610e24565b61102b6020830184610f7f565b9392505050565b600060a082019050818103600083015261104c8188610e51565b905061105b6020830187610e33565b6110686040830186610e42565b6110756060830185610f7f565b6110826080830184610f7f565b9695505050505050565b600060208201905081810360008301526110a581610e8a565b9050919050565b600060208201905081810360008301526110c581610ead565b9050919050565b600060208201905081810360008301526110e581610ed0565b9050919050565b6000602082019050818103600083015261110581610ef3565b9050919050565b6000602082019050818103600083015261112581610f16565b9050919050565b6000602082019050818103600083015261114581610f39565b9050919050565b6000602082019050818103600083015261116581610f5c565b9050919050565b6000611176611187565b90506111828282611326565b919050565b6000604051905090565b600067ffffffffffffffff8211156111ac576111ab6113b5565b5b6111b5826113e4565b9050602081019050919050565b600081519050919050565b600082825260208201905092915050565b60006111e982611284565b91506111f483611284565b9250827fffffffffffffffffffffffffffffffffffffffffffffffffffffffffffffffff0382111561122957611228611357565b5b828201905092915050565b600061123f82611264565b9050919050565b60008115159050919050565b600061125d82611234565b9050919050565b600073ffffffffffffffffffffffffffffffffffffffff82169050919050565b6000819050919050565b6000611299826112a0565b9050919050565b60006112ab82611264565b9050919050565b82818337600083830152505050565b60005b838110156112df5780820151818401526020810190506112c4565b838111156112ee576000848401525b50505050565b6000600282049050600182168061130c57607f821691505b602082108114156113205761131f611386565b5b50919050565b61132f826113e4565b810181811067ffffffffffffffff8211171561134e5761134d6113b5565b5b80604052505050565b7f4e487b7100000000000000000000000000000000000000000000000000000000600052601160045260246000fd5b7f4e487b7100000000000000000000000000000000000000000000000000000000600052602260045260246000fd5b7f4e487b7100000000000000000000000000000000000000000000000000000000600052604160045260246000fd5b6000601f19601f8301169050919050565b7f5472616e73666572206661696c65640000000000000000000000000000000000600082015250565b7f5265737472696374656420746f206275696c6465720000000000000000000000600082015250565b7f46756e64696e67206e6f7420636f6d706c657465000000000000000000000000600082015250565b7f46756e64696e6720636f6d706c65746500000000000000000000000000000000600082015250565b7f46756e643a205472616e73666572206661696c65640000000000000000000000600082015250565b7f46756e643a204e6f7420656e6f75676820616c6c6f77616e6365000000000000600082015250565b7f4e6f20646f6e6174696f6e7320666f722070726f6a6563740000000000000000600082015250565b61151d81611246565b811461152857600080fd5b50565b61153481611252565b811461153f57600080fd5b50565b61154b81611284565b811461155657600080fd5b5056fea26469706673582212209ed0a2a72f3df1462e86779a553bd329137e03b304abf57593c6f04bcd86765864736f6c63430008040033",
  "linkReferences": {},
  "deployedLinkReferences": {}
}